75600001R0000000  4327123456712345678900                              SOCIEDADE BRASILEIRA DE ZOOLOG                                                                                000000011407201500000000000                                 
0000000300001P 01                       123456789012345679022 00000000123456714072015000000000005000000000N  14072015100000000000000000000000000000000000000000000000               000000000000000                         00000000900000000000
7560001300002Q 011000082136760505PABLO DIEGO JOSE FRANCISCO DE PAULA JUANRUA RIO GRANDE DO SUL SAO PAULO MINAS CASAO JOSE DOS QU12345678SANTA RITA DE CRJ0000000000000000                                        000                            
00000005         00000100000000000005000000000                                                                                                                                                                                                  